:020000020000FC
:0200000020C01E
:100040006FC003E005BD09EF07BD02E004BD0093EA
:100050006E00002706BD78940FEF0AB90FE004B9CF
:1000600000E007B9E0E0FAE08FE085B900EC0BB9F9
:1000700088E090E050E060E070E0002745D0F0F7C5
:10008000A5E013D093959A303CF45A3044F46A308A
:100090004CF47A30B4F6F2CF90E05395F6CF50E0BE
:1000A0006395F5CF60E07395E9CF88E085B9E90FF6
:1000B0000491E91B0BB9112722E01213FECF84E053
:1000C00085B9E50F0491E51B0BB9112722E0121346
:1000D000FECF82E085B9E60F0491E61B0BB911272C
:1000E00022E01213FECF81E085B9E70F0491E71BF0
:1000F0000BB9112722E01213FECFAA95B1F68FE0BB
:1001000085B90FEF0BB908950894359907C01127E9
:1001100025E01213FECF359901C008958894089503
:040120001395189586
:0A0A0000C0F9A4B0999282F8809822
:00000001FF
